Component: ARM Compiler 5.06 update 6 (build 750) Tool: armlink [4d35ed]

==============================================================================

Section Cross References

    main.o(i.main) refers to gd32f10x_misc.o(i.nvic_priority_group_set) for nvic_priority_group_set
    main.o(i.main) refers to bitband.o(i.enhenced_run) for enhenced_run
    main.o(i.main) refers to systick.o(i.systick_set) for systick_set
    main.o(i.main) refers to bitband.o(i.get_mem_size) for get_mem_size
    main.o(i.main) refers to bitband.o(i.get_cpu_uid) for get_cpu_uid
    main.o(i.main) refers to usart.o(i.usart_set) for usart_set
    main.o(i.main) refers to printf5.o(i.__0printf$5) for __2printf
    main.o(i.main) refers to led.o(i.led_set) for led_set
    main.o(i.main) refers to timer.o(i.timer_set) for timer_set
    main.o(i.main) refers to led.o(i.led_on) for led_on
    main.o(i.main) refers to systick.o(i.delay_ms) for delay_ms
    main.o(i.main) refers to led.o(i.led_off) for led_off
    main.o(i.main) refers to main.o(.data) for sram_size
    main.o(i.main) refers to main.o(.bss) for uid
    system_gd32f10x.o(i.SystemInit) refers to system_gd32f10x.o(i.system_clock_config) for system_clock_config
    system_gd32f10x.o(i.SystemInit) refers to gd32f10x_misc.o(i.nvic_vector_table_set) for nvic_vector_table_set
    system_gd32f10x.o(i.system_clock_config) refers to system_gd32f10x.o(i.system_clock_120m_hxtal) for system_clock_120m_hxtal
    startup_gd32f10x_xd.o(RESET) refers to startup_gd32f10x_xd.o(STACK) for __initial_sp
==============================================================================

Removing Unused input sections from the image.

    Removing gd32f10x_it.o(.rev16_text), (4 bytes).
    Removing gd32f10x_it.o(.revsh_text), (4 bytes).
    Removing gd32f10x_it.o(.rrx_text), (6 bytes).
    Removing main.o(.rev16_text), (4 bytes).
    Removing main.o(.revsh_text), (4 bytes).
    Removing main.o(.rrx_text), (6 bytes).
    Removing system_gd32f10x.o(.rev16_text), (4 bytes).
    Removing system_gd32f10x.o(.revsh_text), (4 bytes).
    Removing system_gd32f10x.o(.rrx_text), (6 bytes).
    Removing system_gd32f10x.o(.data), (4 bytes).
    Removing startup_gd32f10x_xd.o(HEAP), (512 bytes).
    Removing gd32f10x_adc.o(.rev16_text), (4 bytes).
    Removing gd32f10x_adc.o(.revsh_text), (4 bytes).
    Removing gd32f10x_adc.o(.rrx_text), (6 bytes).
    Removing gd32f10x_adc.o(i.adc_calibration_enable), (42 bytes).
    Removing gd32f10x_adc.o(i.adc_channel_length_config), (70 bytes).
    Removing gd32f10x_adc.o(i.adc_data_alignment_config), (22 bytes).
    Removing gd32f10x_adc.o(i.adc_deinit), (88 bytes).
==============================================================================

Image Symbol Table

    Local Symbols

    Symbol Name                              Value     Ov Type        Size  Object(Section)

    ../clib/microlib/division.c              0x00000000   Number         0  uldiv.o ABSOLUTE
    ../clib/microlib/division.c              0x00000000   Number         0  uidiv.o ABSOLUTE
    ../clib/microlib/init/entry.s            0x00000000   Number         0  entry10a.o ABSOLUTE
    ../clib/microlib/init/entry.s            0x00000000   Number         0  entry11a.o ABSOLUTE
    ../clib/microlib/init/entry.s            0x00000000   Number         0  entry10b.o ABSOLUTE
    ../clib/microlib/init/entry.s            0x00000000   Number         0  entry9b.o ABSOLUTE
    ../clib/microlib/init/entry.s            0x00000000   Number         0  entry9a.o ABSOLUTE
    ../clib/microlib/init/entry.s            0x00000000   Number         0  entry.o ABSOLUTE
    ../clib/microlib/init/entry.s            0x00000000   Number         0  entry8b.o ABSOLUTE
    ../clib/microlib/init/entry.s            0x00000000   Number         0  entry8a.o ABSOLUTE
    ../clib/microlib/init/entry.s            0x00000000   Number         0  entry11b.o ABSOLUTE
    ../clib/microlib/init/entry.s            0x00000000   Number         0  entry7b.o ABSOLUTE
    ../clib/microlib/init/entry.s            0x00000000   Number         0  entry7a.o ABSOLUTE
    ../clib/microlib/init/entry.s            0x00000000   Number         0  entry2.o ABSOLUTE
    ../clib/microlib/init/entry.s            0x00000000   Number         0  entry5.o ABSOLUTE
    ../clib/microlib/longlong.c              0x00000000   Number         0  llshl.o ABSOLUTE
    ../clib/microlib/longlong.c              0x00000000   Number         0  llushr.o ABSOLUTE
    ../clib/microlib/longlong.c              0x00000000   Number         0  llsshr.o ABSOLUTE
    ../clib/microlib/printf/printf.c         0x00000000   Number         0  printf8.o ABSOLUTE
    ../clib/microlib/printf/printf.c         0x00000000   Number         0  printf7.o ABSOLUTE
    ../clib/microlib/printf/printf.c         0x00000000   Number         0  printf6.o ABSOLUTE
    ../clib/microlib/printf/printf.c         0x00000000   Number         0  printf4.o ABSOLUTE
    ../clib/microlib/printf/printf.c         0x00000000   Number         0  printf5.o ABSOLUTE
    ../clib/microlib/printf/printf.c         0x00000000   Number         0  printfa.o ABSOLUTE
    ../clib/microlib/printf/printf.c         0x00000000   Number         0  printf3.o ABSOLUTE
    ../clib/microlib/printf/printf.c         0x00000000   Number         0  printfb.o ABSOLUTE
    ../clib/microlib/printf/printf.c         0x00000000   Number         0  printf0.o ABSOLUTE
    ../clib/microlib/printf/printf.c         0x00000000   Number         0  printf1.o ABSOLUTE
    ../clib/microlib/printf/printf.c         0x00000000   Number         0  printf2.o ABSOLUTE
    ../clib/microlib/printf/stubs.s          0x00000000   Number         0  stubs.o ABSOLUTE
    ../clib/microlib/stdio/streams.c         0x00000000   Number         0  stdout.o ABSOLUTE
    ../clib/microlib/stubs.s                 0x00000000   Number         0  iusefp.o ABSOLUTE
    ../fplib/microlib/fpadd.c                0x00000000   Number         0  dadd.o ABSOLUTE
    ../fplib/microlib/fpdiv.c                0x00000000   Number         0  ddiv.o ABSOLUTE
    ../fplib/microlib/fpepilogue.c           0x00000000   Number         0  depilogue.o ABSOLUTE
    ../fplib/microlib/fpfix.c                0x00000000   Number         0  dfixul.o ABSOLUTE
    ../fplib/microlib/fpmul.c                0x00000000   Number         0  dmul.o ABSOLUTE
    cdrcmple.s                               0x00000000   Number         0  cdrcmple.o ABSOLUTE
    dc.s                                     0x00000000   Number         0  dc.o ABSOLUTE
    driver\\bitband.c                        0x00000000   Number         0  bitband.o ABSOLUTE
    driver\\led.c                            0x00000000   Number         0  led.o ABSOLUTE
    driver\\systick.c                        0x00000000   Number         0  systick.o ABSOLUTE
    driver\\timer.c                          0x00000000   Number         0  timer.o ABSOLUTE
    driver\\usart.c                          0x00000000   Number         0  usart.o ABSOLUTE
    driver\bitband.c                         0x00000000   Number         0  bitband.o ABSOLUTE
    driver\led.c                             0x00000000   Number         0  led.o ABSOLUTE
    driver\systick.c                         0x00000000   Number         0  systick.o ABSOLUTE
    driver\timer.c                           0x00000000   Number         0  timer.o ABSOLUTE
    driver\usart.c                           0x00000000   Number         0  usart.o ABSOLUTE
    handlers.s                               0x00000000   Number         0  handlers.o ABSOLUTE
    init.s                                   0x00000000   Number         0  init.o ABSOLUTE
    std\Source\gd32f10x_adc.c                0x00000000   Number         0  gd32f10x_adc.o ABSOLUTE
    std\Source\gd32f10x_bkp.c                0x00000000   Number         0  gd32f10x_bkp.o ABSOLUTE
    std\Source\gd32f10x_can.c                0x00000000   Number         0  gd32f10x_can.o ABSOLUTE
    std\Source\gd32f10x_crc.c                0x00000000   Number         0  gd32f10x_crc.o ABSOLUTE
    std\Source\gd32f10x_dac.c                0x00000000   Number         0  gd32f10x_dac.o ABSOLUTE
    std\Source\gd32f10x_dbg.c                0x00000000   Number         0  gd32f10x_dbg.o ABSOLUTE
    std\Source\gd32f10x_dma.c                0x00000000   Number         0  gd32f10x_dma.o ABSOLUTE
    std\Source\gd32f10x_enet.c               0x00000000   Number         0  gd32f10x_enet.o ABSOLUTE
    std\Source\gd32f10x_exmc.c               0x00000000   Number         0  gd32f10x_exmc.o ABSOLUTE
    std\Source\gd32f10x_exti.c               0x00000000   Number         0  gd32f10x_exti.o ABSOLUTE
    std\Source\gd32f10x_fmc.c                0x00000000   Number         0  gd32f10x_fmc.o ABSOLUTE
    std\Source\gd32f10x_fwdgt.c              0x00000000   Number         0  gd32f10x_fwdgt.o ABSOLUTE
    std\Source\gd32f10x_gpio.c               0x00000000   Number         0  gd32f10x_gpio.o ABSOLUTE
    std\Source\gd32f10x_i2c.c                0x00000000   Number         0  gd32f10x_i2c.o ABSOLUTE
    std\Source\gd32f10x_misc.c               0x00000000   Number         0  gd32f10x_misc.o ABSOLUTE
    std\Source\gd32f10x_pmu.c                0x00000000   Number         0  gd32f10x_pmu.o ABSOLUTE
    std\Source\gd32f10x_rcu.c                0x00000000   Number         0  gd32f10x_rcu.o ABSOLUTE
    std\Source\gd32f10x_rtc.c                0x00000000   Number         0  gd32f10x_rtc.o ABSOLUTE
    std\Source\gd32f10x_sdio.c               0x00000000   Number         0  gd32f10x_sdio.o ABSOLUTE
    std\Source\gd32f10x_spi.c                0x00000000   Number         0  gd32f10x_spi.o ABSOLUTE
    std\Source\gd32f10x_timer.c              0x00000000   Number         0  gd32f10x_timer.o ABSOLUTE
    std\Source\gd32f10x_usart.c              0x00000000   Number         0  gd32f10x_usart.o ABSOLUTE
    std\Source\gd32f10x_wwdgt.c              0x00000000   Number         0  gd32f10x_wwdgt.o ABSOLUTE
    std\\Source\\gd32f10x_adc.c              0x00000000   Number         0  gd32f10x_adc.o ABSOLUTE
    std\\Source\\gd32f10x_bkp.c              0x00000000   Number         0  gd32f10x_bkp.o ABSOLUTE
    std\\Source\\gd32f10x_can.c              0x00000000   Number         0  gd32f10x_can.o ABSOLUTE
    std\\Source\\gd32f10x_crc.c              0x00000000   Number         0  gd32f10x_crc.o ABSOLUTE
    std\\Source\\gd32f10x_dac.c              0x00000000   Number         0  gd32f10x_dac.o ABSOLUTE
    std\\Source\\gd32f10x_dbg.c              0x00000000   Number         0  gd32f10x_dbg.o ABSOLUTE
    std\\Source\\gd32f10x_dma.c              0x00000000   Number         0  gd32f10x_dma.o ABSOLUTE
    std\\Source\\gd32f10x_enet.c             0x00000000   Number         0  gd32f10x_enet.o ABSOLUTE
    std\\Source\\gd32f10x_exmc.c             0x00000000   Number         0  gd32f10x_exmc.o ABSOLUTE
    std\\Source\\gd32f10x_exti.c             0x00000000   Number         0  gd32f10x_exti.o ABSOLUTE
    std\\Source\\gd32f10x_fmc.c              0x00000000   Number         0  gd32f10x_fmc.o ABSOLUTE
    std\\Source\\gd32f10x_fwdgt.c            0x00000000   Number         0  gd32f10x_fwdgt.o ABSOLUTE
    std\\Source\\gd32f10x_gpio.c             0x00000000   Number         0  gd32f10x_gpio.o ABSOLUTE
    std\\Source\\gd32f10x_i2c.c              0x00000000   Number         0  gd32f10x_i2c.o ABSOLUTE
    std\\Source\\gd32f10x_misc.c             0x00000000   Number         0  gd32f10x_misc.o ABSOLUTE
    std\\Source\\gd32f10x_pmu.c              0x00000000   Number         0  gd32f10x_pmu.o ABSOLUTE
    std\\Source\\gd32f10x_rcu.c              0x00000000   Number         0  gd32f10x_rcu.o ABSOLUTE
    std\\Source\\gd32f10x_rtc.c              0x00000000   Number         0  gd32f10x_rtc.o ABSOLUTE
    std\\Source\\gd32f10x_sdio.c             0x00000000   Number         0  gd32f10x_sdio.o ABSOLUTE
    std\\Source\\gd32f10x_spi.c              0x00000000   Number         0  gd32f10x_spi.o ABSOLUTE
    std\\Source\\gd32f10x_timer.c            0x00000000   Number         0  gd32f10x_timer.o ABSOLUTE
    std\\Source\\gd32f10x_usart.c            0x00000000   Number         0  gd32f10x_usart.o ABSOLUTE
    std\\Source\\gd32f10x_wwdgt.c            0x00000000   Number         0  gd32f10x_wwdgt.o ABSOLUTE
    user\\gd32f10x_it.c                      0x00000000   Number         0  gd32f10x_it.o ABSOLUTE
    user\\main.c                             0x00000000   Number         0  main.o ABSOLUTE
    user\\system_gd32f10x.c                  0x00000000   Number         0  system_gd32f10x.o ABSOLUTE
    user\gd32f10x_it.c                       0x00000000   Number         0  gd32f10x_it.o ABSOLUTE
    user\main.c                              0x00000000   Number         0  main.o ABSOLUTE
    user\startup_gd32f10x_xd.s               0x00000000   Number         0  startup_gd32f10x_xd.o ABSOLUTE
    user\system_gd32f10x.c                   0x00000000   Number         0  system_gd32f10x.o ABSOLUTE
    RESET                                    0x08000000   Section      304  startup_gd32f10x_xd.o(RESET)
    .ARM.Collect$$$$00000000                 0x08000130   Section        0  entry.o(.ARM.Collect$$$$00000000)
    .ARM.Collect$$$$00000001                 0x08000130   Section        4  entry2.o(.ARM.Collect$$$$00000001)
    .ARM.Collect$$$$00000004                 0x08000134   Section        4  entry5.o(.ARM.Collect$$$$00000004)
    .ARM.Collect$$$$00000008                 0x08000138   Section        0  entry7b.o(.ARM.Collect$$$$00000008)
    .ARM.Collect$$$$0000000A                 0x08000138   Section        0  entry8b.o(.ARM.Collect$$$$0000000A)
    .ARM.Collect$$$$0000000B                 0x08000138   Section        8  entry9a.o(.ARM.Collect$$$$0000000B)
    .ARM.Collect$$$$0000000D                 0x08000140   Section        0  entry10a.o(.ARM.Collect$$$$0000000D)
    .ARM.Collect$$$$0000000F                 0x08000140   Section        0  entry11a.o(.ARM.Collect$$$$0000000F)
    .ARM.Collect$$$$00002712                 0x08000140   Section        4  entry2.o(.ARM.Collect$$$$00002712)
    __lit__00000000                          0x08000140   Data           4  entry2.o(.ARM.Collect$$$$00002712)
    .text                                    0x08000144   Section       36  startup_gd32f10x_xd.o(.text)
    .text                                    0x08000168   Section        0  uldiv.o(.text)
    .text                                    0x080001cc   Section       36  init.o(.text)
    .text                                    0x080001f0   Section        0  llshl.o(.text)
    .text                                    0x0800020e   Section        0  llushr.o(.text)
    i.BusFault_Handler                       0x0800022e   Section        0  gd32f10x_it.o(i.BusFault_Handler)
    i.DebugMon_Handler                       0x08000232   Section        0  gd32f10x_it.o(i.DebugMon_Handler)
    i.HardFault_Handler                      0x08000234   Section        0  gd32f10x_it.o(i.HardFault_Handler)
    i.MemManage_Handler                      0x08000238   Section        0  gd32f10x_it.o(i.MemManage_Handler)
    i.NMI_Handler                            0x0800023c   Section        0  gd32f10x_it.o(i.NMI_Handler)
    i.PendSV_Handler                         0x0800023e   Section        0  gd32f10x_it.o(i.PendSV_Handler)
    i.SVC_Handler                            0x08000240   Section        0  gd32f10x_it.o(i.SVC_Handler)
    i.SystemInit                             0x08000244   Section        0  system_gd32f10x.o(i.SystemInit)
    i.UsageFault_Handler                     0x08000318   Section        0  gd32f10x_it.o(i.UsageFault_Handler)
    i.__0printf$5                            0x0800031c   Section        0  printf5.o(i.__0printf$5)
    i.__scatterload_copy                     0x0800033c   Section       14  handlers.o(i.__scatterload_copy)
    i.__scatterload_null                     0x0800034a   Section        2  handlers.o(i.__scatterload_null)
    i.__scatterload_zeroinit                 0x0800034c   Section       14  handlers.o(i.__scatterload_zeroinit)
    i._printf_core                           0x0800035c   Section        0  printf5.o(i._printf_core)
    _printf_core                             0x0800035d   Thumb Code   658  printf5.o(i._printf_core)
    i.delay_ms                               0x0800061c   Section        0  systick.o(i.delay_ms)
    i.delay_nms                              0x08000648   Section        0  systick.o(i.delay_nms)
    delay_nms                                0x08000649   Thumb Code    74  systick.o(i.delay_nms)
    i.dma_channel_enable                     0x08000698   Section        0  gd32f10x_dma.o(i.dma_channel_enable)
    i.dma_circulation_enable                 0x080006ca   Section        0  gd32f10x_dma.o(i.dma_circulation_enable)
    i.dma_init                               0x080006fc   Section        0  gd32f10x_dma.o(i.dma_init)
    i.dma_periph_and_channel_check           0x0800082c   Section        0  gd32f10x_dma.o(i.dma_periph_and_channel_check)
    dma_periph_and_channel_check             0x0800082d   Thumb Code    18  gd32f10x_dma.o(i.dma_periph_and_channel_check)
    i.enhenced_run                           0x08000844   Section        0  bitband.o(i.enhenced_run)
    i.fputc                                  0x08000870   Section        0  usart.o(i.fputc)
    i.get_cpu_uid                            0x08000894   Section        0  bitband.o(i.get_cpu_uid)
    i.get_mem_size                           0x080008b0   Section        0  bitband.o(i.get_mem_size)
    i.gpio_bit_reset                         0x080008c4   Section        0  gd32f10x_gpio.o(i.gpio_bit_reset)
    i.gpio_bit_set                           0x080008c8   Section        0  gd32f10x_gpio.o(i.gpio_bit_set)
    i.gpio_init                              0x080008cc   Section        0  gd32f10x_gpio.o(i.gpio_init)
    i.gpio_pin_remap_config                  0x08000978   Section        0  gd32f10x_gpio.o(i.gpio_pin_remap_config)
    i.led_off                                0x08000a08   Section        0  led.o(i.led_off)
    i.led_on                                 0x08000a38   Section        0  led.o(i.led_on)
    i.led_set                                0x08000a68   Section        0  led.o(i.led_set)
    i.main                                   0x08000ad8   Section        0  main.o(i.main)
    i.nvic_priority_group_set                0x08000ba0   Section        0  gd32f10x_misc.o(i.nvic_priority_group_set)
    i.nvic_vector_table_set                  0x08000bb4   Section        0  gd32f10x_misc.o(i.nvic_vector_table_set)
    i.rcu_clock_freq_get                     0x08000bcc   Section        0  gd32f10x_rcu.o(i.rcu_clock_freq_get)
    i.rcu_periph_clock_enable                0x08000cf0   Section        0  gd32f10x_rcu.o(i.rcu_periph_clock_enable)
    i.system_clock_120m_hxtal                0x08000d10   Section        0  system_gd32f10x.o(i.system_clock_120m_hxtal)
    system_clock_120m_hxtal                  0x08000d11   Thumb Code   180  system_gd32f10x.o(i.system_clock_120m_hxtal)
    i.system_clock_config                    0x08000dcc   Section        0  system_gd32f10x.o(i.system_clock_config)
    system_clock_config                      0x08000dcd   Thumb Code     8  system_gd32f10x.o(i.system_clock_config)
    i.systick_clksource_set                  0x08000dd4   Section        0  gd32f10x_misc.o(i.systick_clksource_set)
    i.systick_set                            0x08000dfc   Section        0  systick.o(i.systick_set)
    i.timer_channel_output_config            0x08000e20   Section        0  gd32f10x_timer.o(i.timer_channel_output_config)
    i.timer_channel_output_mode_config       0x0800100c   Section        0  gd32f10x_timer.o(i.timer_channel_output_mode_config)
    i.timer_channel_output_pulse_value_config 0x08001066   Section        0  gd32f10x_timer.o(i.timer_channel_output_pulse_value_config)
    i.timer_channel_output_shadow_config     0x0800108c   Section        0  gd32f10x_timer.o(i.timer_channel_output_shadow_config)
    i.timer_dma_enable                       0x080010e6   Section        0  gd32f10x_timer.o(i.timer_dma_enable)
    i.timer_enable                           0x080010ee   Section        0  gd32f10x_timer.o(i.timer_enable)
    i.timer_init                             0x080010f8   Section        0  gd32f10x_timer.o(i.timer_init)
    i.timer_primary_output_config            0x080011d8   Section        0  gd32f10x_timer.o(i.timer_primary_output_config)
    i.timer_set                              0x080011f0   Section        0  timer.o(i.timer_set)
    i.usart_baudrate_set                     0x08001324   Section        0  gd32f10x_usart.o(i.usart_baudrate_set)
    i.usart_data_transmit                    0x080013b4   Section        0  gd32f10x_usart.o(i.usart_data_transmit)
    i.usart_enable                           0x080013bc   Section        0  gd32f10x_usart.o(i.usart_enable)
    i.usart_flag_get                         0x080013c6   Section        0  gd32f10x_usart.o(i.usart_flag_get)
    i.usart_hardware_flow_cts_config         0x080013e4   Section        0  gd32f10x_usart.o(i.usart_hardware_flow_cts_config)
    i.usart_hardware_flow_rts_config         0x080013f8   Section        0  gd32f10x_usart.o(i.usart_hardware_flow_rts_config)
    i.usart_parity_config                    0x0800140c   Section        0  gd32f10x_usart.o(i.usart_parity_config)
    i.usart_receive_config                   0x0800141c   Section        0  gd32f10x_usart.o(i.usart_receive_config)
    i.usart_set                              0x0800142c   Section        0  usart.o(i.usart_set)
    i.usart_stop_bit_set                     0x080014ac   Section        0  gd32f10x_usart.o(i.usart_stop_bit_set)
    i.usart_transmit_config                  0x080014bc   Section        0  gd32f10x_usart.o(i.usart_transmit_config)
    i.usart_word_length_set                  0x080014cc   Section        0  gd32f10x_usart.o(i.usart_word_length_set)
    .data                                    0x20000000   Section        4  main.o(.data)
    .data                                    0x20000004   Section        8  systick.o(.data)
    .data                                    0x2000000c   Section       20  timer.o(.data)
    .data                                    0x20000020   Section        4  stdout.o(.data)
    .bss                                     0x20000024   Section       12  main.o(.bss)
    STACK                                    0x20000030   Section     1024  startup_gd32f10x_xd.o(STACK)

    Global Symbols

    Symbol Name                              Value     Ov Type        Size  Object(Section)

    BuildAttributes$$THM_ISAv4$P$D$K$B$S$PE$A:L22UL41UL21$X:L11$S22US41US21$IEEE1$IW$USESV6$~STKCKD$USESV7$~SHL$OSPACE$ROPI$EBA8$MICROLIB$REQ8$PRES8$EABIv2 0x00000000   Number         0  anon$$obj.o ABSOLUTE
    __ARM_use_no_argv                        0x00000000   Number         0  main.o ABSOLUTE
    _printf_a                                0x00000000   Number         0  stubs.o ABSOLUTE
    _printf_c                                0x00000000   Number         0  stubs.o ABSOLUTE
    _printf_charcount                        0x00000000   Number         0  stubs.o ABSOLUTE
    _printf_d                                0x00000000   Number         0  stubs.o ABSOLUTE
    _printf_e                                0x00000000   Number         0  stubs.o ABSOLUTE
    _printf_f                                0x00000000   Number         0  stubs.o ABSOLUTE
    _printf_flags                            0x00000000   Number         0  stubs.o ABSOLUTE
    _printf_fp_dec                           0x00000000   Number         0  stubs.o ABSOLUTE
    _printf_fp_hex                           0x00000000   Number         0  stubs.o ABSOLUTE
    _printf_g                                0x00000000   Number         0  stubs.o ABSOLUTE
    _printf_i                                0x00000000   Number         0  stubs.o ABSOLUTE
    _printf_int_dec                          0x00000000   Number         0  stubs.o ABSOLUTE
    _printf_l                                0x00000000   Number         0  stubs.o ABSOLUTE
    _printf_lc                               0x00000000   Number         0  stubs.o ABSOLUTE
    _printf_ll                               0x00000000   Number         0  stubs.o ABSOLUTE
    _printf_lld                              0x00000000   Number         0  stubs.o ABSOLUTE
    _printf_lli                              0x00000000   Number         0  stubs.o ABSOLUTE
    _printf_llo                              0x00000000   Number         0  stubs.o ABSOLUTE
    _printf_llu                              0x00000000   Number         0  stubs.o ABSOLUTE
    _printf_llx                              0x00000000   Number         0  stubs.o ABSOLUTE
    _printf_longlong_dec                     0x00000000   Number         0  stubs.o ABSOLUTE
    _printf_longlong_hex                     0x00000000   Number         0  stubs.o ABSOLUTE
    _printf_longlong_oct                     0x00000000   Number         0  stubs.o ABSOLUTE
    _printf_ls                               0x00000000   Number         0  stubs.o ABSOLUTE
    _printf_mbtowc                           0x00000000   Number         0  stubs.o ABSOLUTE
    _printf_n                                0x00000000   Number         0  stubs.o ABSOLUTE
    _printf_o                                0x00000000   Number         0  stubs.o ABSOLUTE
    _printf_p                                0x00000000   Number         0  stubs.o ABSOLUTE
    _printf_percent                          0x00000000   Number         0  stubs.o ABSOLUTE
    _printf_pre_padding                      0x00000000   Number         0  stubs.o ABSOLUTE
    _printf_return_value                     0x00000000   Number         0  stubs.o ABSOLUTE
    _printf_s                                0x00000000   Number         0  stubs.o ABSOLUTE
    _printf_sizespec                         0x00000000   Number         0  stubs.o ABSOLUTE
    _printf_str                              0x00000000   Number         0  stubs.o ABSOLUTE
    _printf_truncate_signed                  0x00000000   Number         0  stubs.o ABSOLUTE
    _printf_truncate_unsigned                0x00000000   Number         0  stubs.o ABSOLUTE
    _printf_u                                0x00000000   Number         0  stubs.o ABSOLUTE
    _printf_wc                               0x00000000   Number         0  stubs.o ABSOLUTE
    _printf_wctomb                           0x00000000   Number         0  stubs.o ABSOLUTE
    _printf_widthprec                        0x00000000   Number         0  stubs.o ABSOLUTE
    _printf_x                                0x00000000   Number         0  stubs.o ABSOLUTE
    __cpp_initialize__aeabi_                  - Undefined Weak Reference
    __cxa_finalize                            - Undefined Weak Reference
    __decompress                              - Undefined Weak Reference
    _clock_init                               - Undefined Weak Reference
    _microlib_exit                            - Undefined Weak Reference
    __Vectors_Size                           0x00000130   Number         0  startup_gd32f10x_xd.o ABSOLUTE
    __Vectors                                0x08000000   Data           4  startup_gd32f10x_xd.o(RESET)
    __Vectors_End                            0x08000130   Data           0  startup_gd32f10x_xd.o(RESET)
    __main                                   0x08000131   Thumb Code     0  entry.o(.ARM.Collect$$$$00000000)
    _main_stk                                0x08000131   Thumb Code     0  entry2.o(.ARM.Collect$$$$00000001)
    _main_scatterload                        0x08000135   Thumb Code     0  entry5.o(.ARM.Collect$$$$00000004)
    __main_after_scatterload                 0x08000139   Thumb Code     0  entry5.o(.ARM.Collect$$$$00000004)
    _main_clock                              0x08000139   Thumb Code     0  entry7b.o(.ARM.Collect$$$$00000008)
    _main_cpp_init                           0x08000139   Thumb Code     0  entry8b.o(.ARM.Collect$$$$0000000A)
    _main_init                               0x08000139   Thumb Code     0  entry9a.o(.ARM.Collect$$$$0000000B)
    __rt_final_cpp                           0x08000141   Thumb Code     0  entry10a.o(.ARM.Collect$$$$0000000D)
    __rt_final_exit                          0x08000141   Thumb Code     0  entry11a.o(.ARM.Collect$$$$0000000F)
    Reset_Handler                            0x08000145   Thumb Code     8  startup_gd32f10x_xd.o(.text)
    SysTick_Handler                          0x0800015d   Thumb Code     2  startup_gd32f10x_xd.o(.text)
    ADC0_1_IRQHandler                        0x0800015f   Thumb Code     0  startup_gd32f10x_xd.o(.text)
    ADC2_IRQHandler                          0x0800015f   Thumb Code     0  startup_gd32f10x_xd.o(.text)
    CAN0_EWMC_IRQHandler                     0x0800015f   Thumb Code     0  startup_gd32f10x_xd.o(.text)
    CAN0_RX1_IRQHandler                      0x0800015f   Thumb Code     0  startup_gd32f10x_xd.o(.text)
    DMA0_Channel0_IRQHandler                 0x0800015f   Thumb Code     0  startup_gd32f10x_xd.o(.text)
    DMA0_Channel1_IRQHandler                 0x0800015f   Thumb Code     0  startup_gd32f10x_xd.o(.text)
    DMA0_Channel2_IRQHandler                 0x0800015f   Thumb Code     0  startup_gd32f10x_xd.o(.text)
    DMA0_Channel3_IRQHandler                 0x0800015f   Thumb Code     0  startup_gd32f10x_xd.o(.text)
    DMA0_Channel4_IRQHandler                 0x0800015f   Thumb Code     0  startup_gd32f10x_xd.o(.text)
    DMA0_Channel5_IRQHandler                 0x0800015f   Thumb Code     0  startup_gd32f10x_xd.o(.text)
    DMA0_Channel6_IRQHandler                 0x0800015f   Thumb Code     0  startup_gd32f10x_xd.o(.text)
    DMA1_Channel0_IRQHandler                 0x0800015f   Thumb Code     0  startup_gd32f10x_xd.o(.text)
    DMA1_Channel1_IRQHandler                 0x0800015f   Thumb Code     0  startup_gd32f10x_xd.o(.text)
    DMA1_Channel2_IRQHandler                 0x0800015f   Thumb Code     0  startup_gd32f10x_xd.o(.text)
    DMA1_Channel3_4_IRQHandler               0x0800015f   Thumb Code     0  startup_gd32f10x_xd.o(.text)
    EXMC_IRQHandler                          0x0800015f   Thumb Code     0  startup_gd32f10x_xd.o(.text)
    EXTI0_IRQHandler                         0x0800015f   Thumb Code     0  startup_gd32f10x_xd.o(.text)
    EXTI10_15_IRQHandler                     0x0800015f   Thumb Code     0  startup_gd32f10x_xd.o(.text)
    EXTI1_IRQHandler                         0x0800015f   Thumb Code     0  startup_gd32f10x_xd.o(.text)
    EXTI2_IRQHandler                         0x0800015f   Thumb Code     0  startup_gd32f10x_xd.o(.text)
    EXTI3_IRQHandler                         0x0800015f   Thumb Code     0  startup_gd32f10x_xd.o(.text)
    EXTI4_IRQHandler                         0x0800015f   Thumb Code     0  startup_gd32f10x_xd.o(.text)
    EXTI5_9_IRQHandler                       0x0800015f   Thumb Code     0  startup_gd32f10x_xd.o(.text)
    FMC_IRQHandler                           0x0800015f   Thumb Code     0  startup_gd32f10x_xd.o(.text)
    I2C0_ER_IRQHandler                       0x0800015f   Thumb Code     0  startup_gd32f10x_xd.o(.text)
    I2C0_EV_IRQHandler                       0x0800015f   Thumb Code     0  startup_gd32f10x_xd.o(.text)
    I2C1_ER_IRQHandler                       0x0800015f   Thumb Code     0  startup_gd32f10x_xd.o(.text)
    I2C1_EV_IRQHandler                       0x0800015f   Thumb Code     0  startup_gd32f10x_xd.o(.text)
    LVD_IRQHandler                           0x0800015f   Thumb Code     0  startup_gd32f10x_xd.o(.text)
    RCU_IRQHandler                           0x0800015f   Thumb Code     0  startup_gd32f10x_xd.o(.text)
    RTC_Alarm_IRQHandler                     0x0800015f   Thumb Code     0  startup_gd32f10x_xd.o(.text)
    RTC_IRQHandler                           0x0800015f   Thumb Code     0  startup_gd32f10x_xd.o(.text)
    SDIO_IRQHandler                          0x0800015f   Thumb Code     0  startup_gd32f10x_xd.o(.text)
    SPI0_IRQHandler                          0x0800015f   Thumb Code     0  startup_gd32f10x_xd.o(.text)
    SPI1_IRQHandler                          0x0800015f   Thumb Code     0  startup_gd32f10x_xd.o(.text)
    SPI2_IRQHandler                          0x0800015f   Thumb Code     0  startup_gd32f10x_xd.o(.text)
    TAMPER_IRQHandler                        0x0800015f   Thumb Code     0  startup_gd32f10x_xd.o(.text)
    TIMER0_BRK_TIMER8_IRQHandler             0x0800015f   Thumb Code     0  startup_gd32f10x_xd.o(.text)
    TIMER0_Channel_IRQHandler                0x0800015f   Thumb Code     0  startup_gd32f10x_xd.o(.text)
    TIMER0_TRG_CMT_TIMER10_IRQHandler        0x0800015f   Thumb Code     0  startup_gd32f10x_xd.o(.text)
    TIMER0_UP_TIMER9_IRQHandler              0x0800015f   Thumb Code     0  startup_gd32f10x_xd.o(.text)
    TIMER1_IRQHandler                        0x0800015f   Thumb Code     0  startup_gd32f10x_xd.o(.text)
    TIMER2_IRQHandler                        0x0800015f   Thumb Code     0  startup_gd32f10x_xd.o(.text)
    TIMER3_IRQHandler                        0x0800015f   Thumb Code     0  startup_gd32f10x_xd.o(.text)
    TIMER4_IRQHandler                        0x0800015f   Thumb Code     0  startup_gd32f10x_xd.o(.text)
    TIMER5_IRQHandler                        0x0800015f   Thumb Code     0  startup_gd32f10x_xd.o(.text)
    TIMER6_IRQHandler                        0x0800015f   Thumb Code     0  startup_gd32f10x_xd.o(.text)
    TIMER7_BRK_TIMER11_IRQHandler            0x0800015f   Thumb Code     0  startup_gd32f10x_xd.o(.text)
    TIMER7_Channel_IRQHandler                0x0800015f   Thumb Code     0  startup_gd32f10x_xd.o(.text)
    TIMER7_TRG_CMT_TIMER13_IRQHandler        0x0800015f   Thumb Code     0  startup_gd32f10x_xd.o(.text)
    TIMER7_UP_TIMER12_IRQHandler             0x0800015f   Thumb Code     0  startup_gd32f10x_xd.o(.text)
    UART3_IRQHandler                         0x0800015f   Thumb Code     0  startup_gd32f10x_xd.o(.text)
    UART4_IRQHandler                         0x0800015f   Thumb Code     0  startup_gd32f10x_xd.o(.text)
    USART0_IRQHandler                        0x0800015f   Thumb Code     0  startup_gd32f10x_xd.o(.text)
    USART1_IRQHandler                        0x0800015f   Thumb Code     0  startup_gd32f10x_xd.o(.text)
    USART2_IRQHandler                        0x0800015f   Thumb Code     0  startup_gd32f10x_xd.o(.text)
    USBD_HP_CAN0_TX_IRQHandler               0x0800015f   Thumb Code     0  startup_gd32f10x_xd.o(.text)
    USBD_LP_CAN0_RX0_IRQHandler              0x0800015f   Thumb Code     0  startup_gd32f10x_xd.o(.text)
    USBD_WKUP_IRQHandler                     0x0800015f   Thumb Code     0  startup_gd32f10x_xd.o(.text)
    WWDGT_IRQHandler                         0x0800015f   Thumb Code     0  startup_gd32f10x_xd.o(.text)
    __aeabi_uldivmod                         0x08000169   Thumb Code    98  uldiv.o(.text)
    __scatterload                            0x080001cd   Thumb Code    28  init.o(.text)
    __scatterload_rt2                        0x080001cd   Thumb Code     0  init.o(.text)
    __aeabi_llsl                             0x080001f1   Thumb Code    30  llshl.o(.text)
    _ll_shift_l                              0x080001f1   Thumb Code     0  llshl.o(.text)
    __aeabi_llsr                             0x0800020f   Thumb Code    32  llushr.o(.text)
    _ll_ushift_r                             0x0800020f   Thumb Code     0  llushr.o(.text)
    BusFault_Handler                         0x0800022f   Thumb Code     4  gd32f10x_it.o(i.BusFault_Handler)
    DebugMon_Handler                         0x08000233   Thumb Code     2  gd32f10x_it.o(i.DebugMon_Handler)
    HardFault_Handler                        0x08000235   Thumb Code     4  gd32f10x_it.o(i.HardFault_Handler)
    MemManage_Handler                        0x08000239   Thumb Code     4  gd32f10x_it.o(i.MemManage_Handler)
    NMI_Handler                              0x0800023d   Thumb Code     2  gd32f10x_it.o(i.NMI_Handler)
    PendSV_Handler                           0x0800023f   Thumb Code     2  gd32f10x_it.o(i.PendSV_Handler)
    SVC_Handler                              0x08000241   Thumb Code     2  gd32f10x_it.o(i.SVC_Handler)
    SystemInit                               0x08000245   Thumb Code   196  system_gd32f10x.o(i.SystemInit)
    UsageFault_Handler                       0x08000319   Thumb Code     4  gd32f10x_it.o(i.UsageFault_Handler)
    __0printf$5                              0x0800031d   Thumb Code    22  printf5.o(i.__0printf$5)
    __1printf$5                              0x0800031d   Thumb Code     0  printf5.o(i.__0printf$5)
    __2printf                                0x0800031d   Thumb Code     0  printf5.o(i.__0printf$5)
    __scatterload_copy                       0x0800033d   Thumb Code    14  handlers.o(i.__scatterload_copy)
    __scatterload_null                       0x0800034b   Thumb Code     2  handlers.o(i.__scatterload_null)
    __scatterload_zeroinit                   0x0800034d   Thumb Code    14  handlers.o(i.__scatterload_zeroinit)
    delay_ms                                 0x0800061d   Thumb Code    42  systick.o(i.delay_ms)
    dma_channel_enable                       0x08000699   Thumb Code    50  gd32f10x_dma.o(i.dma_channel_enable)
    dma_circulation_enable                   0x080006cb   Thumb Code    50  gd32f10x_dma.o(i.dma_circulation_enable)
    dma_init                                 0x080006fd   Thumb Code   302  gd32f10x_dma.o(i.dma_init)
    enhenced_run                             0x08000845   Thumb Code    38  bitband.o(i.enhenced_run)
    fputc                                    0x08000871   Thumb Code    32  usart.o(i.fputc)
    get_cpu_uid                              0x08000895   Thumb Code    24  bitband.o(i.get_cpu_uid)
    get_mem_size                             0x080008b1   Thumb Code    16  bitband.o(i.get_mem_size)
    gpio_bit_reset                           0x080008c5   Thumb Code     4  gd32f10x_gpio.o(i.gpio_bit_reset)
    gpio_bit_set                             0x080008c9   Thumb Code     4  gd32f10x_gpio.o(i.gpio_bit_set)
    gpio_init                                0x080008cd   Thumb Code   172  gd32f10x_gpio.o(i.gpio_init)
    gpio_pin_remap_config                    0x08000979   Thumb Code   138  gd32f10x_gpio.o(i.gpio_pin_remap_config)
    led_off                                  0x08000a09   Thumb Code    44  led.o(i.led_off)
    led_on                                   0x08000a39   Thumb Code    44  led.o(i.led_on)
    led_set                                  0x08000a69   Thumb Code   108  led.o(i.led_set)
    main                                     0x08000ad9   Thumb Code   112  main.o(i.main)
    nvic_priority_group_set                  0x08000ba1   Thumb Code    10  gd32f10x_misc.o(i.nvic_priority_group_set)
    nvic_vector_table_set                    0x08000bb5   Thumb Code    16  gd32f10x_misc.o(i.nvic_vector_table_set)
    rcu_clock_freq_get                       0x08000bcd   Thumb Code   264  gd32f10x_rcu.o(i.rcu_clock_freq_get)
    rcu_periph_clock_enable                  0x08000cf1   Thumb Code    28  gd32f10x_rcu.o(i.rcu_periph_clock_enable)
    systick_clksource_set                    0x08000dd5   Thumb Code    40  gd32f10x_misc.o(i.systick_clksource_set)
    systick_set                              0x08000dfd   Thumb Code    26  systick.o(i.systick_set)
    timer_channel_output_config              0x08000e21   Thumb Code   484  gd32f10x_timer.o(i.timer_channel_output_config)
    timer_channel_output_mode_config         0x0800100d   Thumb Code    90  gd32f10x_timer.o(i.timer_channel_output_mode_config)
    timer_channel_output_pulse_value_config  0x08001067   Thumb Code    38  gd32f10x_timer.o(i.timer_channel_output_pulse_value_config)
    timer_channel_output_shadow_config       0x0800108d   Thumb Code    90  gd32f10x_timer.o(i.timer_channel_output_shadow_config)
    timer_dma_enable                         0x080010e7   Thumb Code     8  gd32f10x_timer.o(i.timer_dma_enable)
    timer_enable                             0x080010ef   Thumb Code    10  gd32f10x_timer.o(i.timer_enable)
    timer_init                               0x080010f9   Thumb Code   170  gd32f10x_timer.o(i.timer_init)
    timer_primary_output_config              0x080011d9   Thumb Code    24  gd32f10x_timer.o(i.timer_primary_output_config)
    timer_set                                0x080011f1   Thumb Code   288  timer.o(i.timer_set)
    usart_baudrate_set                       0x08001325   Thumb Code   136  gd32f10x_usart.o(i.usart_baudrate_set)
    usart_data_transmit                      0x080013b5   Thumb Code     8  gd32f10x_usart.o(i.usart_data_transmit)
    usart_enable                             0x080013bd   Thumb Code    10  gd32f10x_usart.o(i.usart_enable)
    usart_flag_get                           0x080013c7   Thumb Code    30  gd32f10x_usart.o(i.usart_flag_get)
    usart_hardware_flow_cts_config           0x080013e5   Thumb Code    20  gd32f10x_usart.o(i.usart_hardware_flow_cts_config)
    usart_hardware_flow_rts_config           0x080013f9   Thumb Code    20  gd32f10x_usart.o(i.usart_hardware_flow_rts_config)
    usart_parity_config                      0x0800140d   Thumb Code    16  gd32f10x_usart.o(i.usart_parity_config)
    usart_receive_config                     0x0800141d   Thumb Code    16  gd32f10x_usart.o(i.usart_receive_config)
    usart_set                                0x0800142d   Thumb Code   120  usart.o(i.usart_set)
    usart_stop_bit_set                       0x080014ad   Thumb Code    16  gd32f10x_usart.o(i.usart_stop_bit_set)
    usart_transmit_config                    0x080014bd   Thumb Code    16  gd32f10x_usart.o(i.usart_transmit_config)
    usart_word_length_set                    0x080014cd   Thumb Code    16  gd32f10x_usart.o(i.usart_word_length_set)
    Region$$Table$$Base                      0x080014dc   Number         0  anon$$obj.o(Region$$Table)
    Region$$Table$$Limit                     0x080014fc   Number         0  anon$$obj.o(Region$$Table)
    sram_size                                0x20000000   Data           2  main.o(.data)
    flash_size                               0x20000002   Data           2  main.o(.data)
    fac_us                                   0x20000004   Data           1  systick.o(.data)
    fac_ms                                   0x20000008   Data           4  systick.o(.data)
    plus_value                               0x2000000c   Data          20  timer.o(.data)
    __stdout                                 0x20000020   Data           4  stdout.o(.data)
    uid                                      0x20000024   Data          12  main.o(.bss)
    __initial_sp                             0x20000430   Data           0  startup_gd32f10x_xd.o(STACK)



==============================================================================

Memory Map of the image

  Image Entry point : 0x08000131

  Load Region LR_IROM1 (Base: 0x08000000, Size: 0x00001520, Max: 0x00300000, ABSOLUTE)

    Execution Region ER_IROM1 (Exec base: 0x08000000, Load base: 0x08000000, Size: 0x000014fc, Max: 0x00300000, ABSOLUTE)

    Exec Addr    Load Addr    Size         Type   Attr      Idx    E Section Name        Object

    0x08000000   0x08000000   0x00000130   Data   RO          422    RESET               startup_gd32f10x_xd.o
    0x08000130   0x08000130   0x00000000   Code   RO         4369  * .ARM.Collect$$$$00000000  mc_w.l(entry.o)
    0x08000130   0x08000130   0x00000004   Code   RO         4633    .ARM.Collect$$$$00000001  mc_w.l(entry2.o)
    0x08000134   0x08000134   0x00000004   Code   RO         4636    .ARM.Collect$$$$00000004  mc_w.l(entry5.o)
    0x08000138   0x08000138   0x00000000   Code   RO         4638    .ARM.Collect$$$$00000008  mc_w.l(entry7b.o)
    0x08000138   0x08000138   0x00000000   Code   RO         4640    .ARM.Collect$$$$0000000A  mc_w.l(entry8b.o)
    0x08000138   0x08000138   0x00000008   Code   RO         4641    .ARM.Collect$$$$0000000B  mc_w.l(entry9a.o)
    0x08000140   0x08000140   0x00000000   Code   RO         4643    .ARM.Collect$$$$0000000D  mc_w.l(entry10a.o)
    0x08000140   0x08000140   0x00000000   Code   RO         4645    .ARM.Collect$$$$0000000F  mc_w.l(entry11a.o)
    0x08000140   0x08000140   0x00000004   Code   RO         4634    .ARM.Collect$$$$00002712  mc_w.l(entry2.o)
    0x08000144   0x08000144   0x00000024   Code   RO          423    .text               startup_gd32f10x_xd.o
    0x08000168   0x08000168   0x00000062   Code   RO         4650    .text               mc_w.l(uldiv.o)
    0x080001ca   0x080001ca   0x00000002   PAD
    0x080001cc   0x080001cc   0x00000024   Code   RO         4663    .text               mc_w.l(init.o)
    0x080001f0   0x080001f0   0x0000001e   Code   RO         4665    .text               mc_w.l(llshl.o)
    0x0800020e   0x0800020e   0x00000020   Code   RO         4667    .text               mc_w.l(llushr.o)
    0x0800022e   0x0800022e   0x00000004   Code   RO            4    i.BusFault_Handler  gd32f10x_it.o
    0x08000232   0x08000232   0x00000002   Code   RO            5    i.DebugMon_Handler  gd32f10x_it.o
    0x08000234   0x08000234   0x00000004   Code   RO            6    i.HardFault_Handler  gd32f10x_it.o
    0x08000238   0x08000238   0x00000004   Code   RO            7    i.MemManage_Handler  gd32f10x_it.o
    0x0800023c   0x0800023c   0x00000002   Code   RO            8    i.NMI_Handler       gd32f10x_it.o
    0x0800023e   0x0800023e   0x00000002   Code   RO            9    i.PendSV_Handler    gd32f10x_it.o
    0x08000240   0x08000240   0x00000002   Code   RO           10    i.SVC_Handler       gd32f10x_it.o
    0x08000242   0x08000242   0x00000002   PAD
    0x08000244   0x08000244   0x000000d4   Code   RO          304    i.SystemInit        system_gd32f10x.o
    0x08000318   0x08000318   0x00000004   Code   RO           11    i.UsageFault_Handler  gd32f10x_it.o
    0x0800031c   0x0800031c   0x00000020   Code   RO         4505    i.__0printf$5       mc_w.l(printf5.o)
    0x0800033c   0x0800033c   0x0000000e   Code   RO         4675    i.__scatterload_copy  mc_w.l(handlers.o)
    0x0800034a   0x0800034a   0x00000002   Code   RO         4676    i.__scatterload_null  mc_w.l(handlers.o)
    0x0800034c   0x0800034c   0x0000000e   Code   RO         4677    i.__scatterload_zeroinit  mc_w.l(handlers.o)
    0x0800035a   0x0800035a   0x00000002   PAD
    0x0800035c   0x0800035c   0x000002c0   Code   RO         4512    i._printf_core      mc_w.l(printf5.o)
    0x0800061c   0x0800061c   0x0000002a   Code   RO         4158    i.delay_ms          systick.o
    0x08000646   0x08000646   0x00000002   PAD
    0x08000648   0x08000648   0x00000050   Code   RO         4159    i.delay_nms         systick.o
    0x08000698   0x08000698   0x00000032   Code   RO         1267    i.dma_channel_enable  gd32f10x_dma.o
    0x080006ca   0x080006ca   0x00000032   Code   RO         1269    i.dma_circulation_enable  gd32f10x_dma.o
    0x080006fc   0x080006fc   0x0000012e   Code   RO         1273    i.dma_init          gd32f10x_dma.o
    0x0800082a   0x0800082a   0x00000002   PAD
    0x0800082c   0x0800082c   0x00000018   Code   RO         1285    i.dma_periph_and_channel_check  gd32f10x_dma.o
    0x08000844   0x08000844   0x0000002c   Code   RO         4119    i.enhenced_run      bitband.o
    0x08000870   0x08000870   0x00000024   Code   RO         4223    i.fputc             usart.o
    0x08000894   0x08000894   0x0000001c   Code   RO         4120    i.get_cpu_uid       bitband.o
    0x080008b0   0x080008b0   0x00000014   Code   RO         4121    i.get_mem_size      bitband.o
    0x080008c4   0x080008c4   0x00000004   Code   RO         2004    i.gpio_bit_reset    gd32f10x_gpio.o
    0x080008c8   0x080008c8   0x00000004   Code   RO         2005    i.gpio_bit_set      gd32f10x_gpio.o
    0x080008cc   0x080008cc   0x000000ac   Code   RO         2012    i.gpio_init         gd32f10x_gpio.o
    0x08000978   0x08000978   0x00000090   Code   RO         2018    i.gpio_pin_remap_config  gd32f10x_gpio.o
    0x08000a08   0x08000a08   0x00000030   Code   RO         4080    i.led_off           led.o
    0x08000a38   0x08000a38   0x00000030   Code   RO         4081    i.led_on            led.o
    0x08000a68   0x08000a68   0x00000070   Code   RO         4082    i.led_set           led.o
    0x08000ad8   0x08000ad8   0x000000c8   Code   RO          174    i.main              main.o
    0x08000ba0   0x08000ba0   0x00000014   Code   RO         2329    i.nvic_priority_group_set  gd32f10x_misc.o
    0x08000bb4   0x08000bb4   0x00000018   Code   RO         2330    i.nvic_vector_table_set  gd32f10x_misc.o
    0x08000bcc   0x08000bcc   0x00000124   Code   RO         2486    i.rcu_clock_freq_get  gd32f10x_rcu.o
    0x08000cf0   0x08000cf0   0x00000020   Code   RO         2503    i.rcu_periph_clock_enable  gd32f10x_rcu.o
    0x08000d10   0x08000d10   0x000000bc   Code   RO          305    i.system_clock_120m_hxtal  system_gd32f10x.o
    0x08000dcc   0x08000dcc   0x00000008   Code   RO          306    i.system_clock_config  system_gd32f10x.o
    0x08000dd4   0x08000dd4   0x00000028   Code   RO         2333    i.systick_clksource_set  gd32f10x_misc.o
    0x08000dfc   0x08000dfc   0x00000024   Code   RO         4164    i.systick_set       systick.o
    0x08000e20   0x08000e20   0x000001ec   Code   RO         3330    i.timer_channel_output_config  gd32f10x_timer.o
    0x0800100c   0x0800100c   0x0000005a   Code   RO         3332    i.timer_channel_output_mode_config  gd32f10x_timer.o
    0x08001066   0x08001066   0x00000026   Code   RO         3334    i.timer_channel_output_pulse_value_config  gd32f10x_timer.o
    0x0800108c   0x0800108c   0x0000005a   Code   RO         3335    i.timer_channel_output_shadow_config  gd32f10x_timer.o
    0x080010e6   0x080010e6   0x00000008   Code   RO         3346    i.timer_dma_enable  gd32f10x_timer.o
    0x080010ee   0x080010ee   0x0000000a   Code   RO         3348    i.timer_enable      gd32f10x_timer.o
    0x080010f8   0x080010f8   0x000000e0   Code   RO         3358    i.timer_init        gd32f10x_timer.o
    0x080011d8   0x080011d8   0x00000018   Code   RO         3372    i.timer_primary_output_config  gd32f10x_timer.o
    0x080011f0   0x080011f0   0x00000134   Code   RO         4256    i.timer_set         timer.o
    0x08001324   0x08001324   0x00000090   Code   RO         3745    i.usart_baudrate_set  gd32f10x_usart.o
    0x080013b4   0x080013b4   0x00000008   Code   RO         3747    i.usart_data_transmit  gd32f10x_usart.o
    0x080013bc   0x080013bc   0x0000000a   Code   RO         3752    i.usart_enable      gd32f10x_usart.o
    0x080013c6   0x080013c6   0x0000001e   Code   RO         3754    i.usart_flag_get    gd32f10x_usart.o
    0x080013e4   0x080013e4   0x00000014   Code   RO         3758    i.usart_hardware_flow_cts_config  gd32f10x_usart.o
    0x080013f8   0x080013f8   0x00000014   Code   RO         3759    i.usart_hardware_flow_rts_config  gd32f10x_usart.o
    0x0800140c   0x0800140c   0x00000010   Code   RO         3773    i.usart_parity_config  gd32f10x_usart.o
    0x0800141c   0x0800141c   0x00000010   Code   RO         3775    i.usart_receive_config  gd32f10x_usart.o
    0x0800142c   0x0800142c   0x00000080   Code   RO         4224    i.usart_set         usart.o
    0x080014ac   0x080014ac   0x00000010   Code   RO         3781    i.usart_stop_bit_set  gd32f10x_usart.o
    0x080014bc   0x080014bc   0x00000010   Code   RO         3785    i.usart_transmit_config  gd32f10x_usart.o
    0x080014cc   0x080014cc   0x00000010   Code   RO         3786    i.usart_word_length_set  gd32f10x_usart.o
    0x080014dc   0x080014dc   0x00000020   Data   RO         4673    Region$$Table       anon$$obj.o


    Execution Region RW_IRAM1 (Exec base: 0x20000000, Load base: 0x080014fc, Size: 0x00000430, Max: 0x00018000, ABSOLUTE)

    Exec Addr    Load Addr    Size         Type   Attr      Idx    E Section Name        Object

    0x20000000   0x080014fc   0x00000004   Data   RW          176    .data               main.o
    0x20000004   0x08001500   0x00000008   Data   RW         4165    .data               systick.o
    0x2000000c   0x08001508   0x00000014   Data   RW         4257    .data               timer.o
    0x20000020   0x0800151c   0x00000004   Data   RW         4647    .data               mc_w.l(stdout.o)
    0x20000024        -       0x0000000c   Zero   RW          175    .bss                main.o
    0x20000030        -       0x00000400   Zero   RW          420    STACK               startup_gd32f10x_xd.o


==============================================================================

Image component sizes


      Code (inc. data)   RO Data    RW Data    ZI Data      Debug   Object Name

        92         14          0          0          0       3440   bitband.o
         0          0          0          0          0       4208   gd32f10x_adc.o
       426          6          0          0          0       2705   gd32f10x_dma.o
       324          6          0          0          0       2580   gd32f10x_gpio.o
        24          0          0          0          0      46432   gd32f10x_it.o
        84         18          0          0          0       1498   gd32f10x_misc.o
       324         32          0          0          0       1571   gd32f10x_rcu.o
       976         62          0          0          0       5301   gd32f10x_timer.o
       312          8          0          0          0       6019   gd32f10x_usart.o
       208         12          0          0          0       1257   led.o
       200         88          0          4         12       4158   main.o
        36          8        304          0       1024        772   startup_gd32f10x_xd.o
       408         24          0          0          0       2161   system_gd32f10x.o
       158         16          0          8          0       1745   systick.o
       308         20          0         20          0      22589   timer.o
       164         12          0          0          0       1036   usart.o

    ----------------------------------------------------------------------
      4050        326        336         32       1036     107472   Object Totals
         0          0         32          0          0          0   (incl. Generated)
         6          0          0          0          0          0   (incl. Padding)

    ----------------------------------------------------------------------

      Code (inc. data)   RO Data    RW Data    ZI Data      Debug   Library Member Name

         0          0          0          0          0          0   entry.o
         0          0          0          0          0          0   entry10a.o
         0          0          0          0          0          0   entry11a.o
         8          4          0          0          0          0   entry2.o
         4          0          0          0          0          0   entry5.o
         0          0          0          0          0          0   entry7b.o
         0          0          0          0          0          0   entry8b.o
         8          4          0          0          0          0   entry9a.o
        30          0          0          0          0          0   handlers.o
        36          8          0          0          0         68   init.o
        30          0          0          0          0         68   llshl.o
        32          0          0          0          0         68   llushr.o
       736         56          0          0          0        184   printf5.o
         0          0          0          4          0          0   stdout.o
        98          0          0          0          0         92   uldiv.o

    ----------------------------------------------------------------------
       986         72          0          4          0        480   Library Totals
         4          0          0          0          0          0   (incl. Padding)

    ----------------------------------------------------------------------

      Code (inc. data)   RO Data    RW Data    ZI Data      Debug   Library Name

       982         72          0          4          0        480   mc_w.l

    ----------------------------------------------------------------------
       986         72          0          4          0        480   Library Totals

    ----------------------------------------------------------------------

==============================================================================


      Code (inc. data)   RO Data    RW Data    ZI Data      Debug   

      5036        398        336         36       1036     105192   Grand Totals
      5036        398        336         36       1036     105192   ELF Image Totals
      5036        398        336         36          0          0   ROM Totals

==============================================================================

    Total RO  Size (Code + RO Data)                 5372 (   5.25kB)
    Total RW  Size (RW Data + ZI Data)              1072 (   1.05kB)
    Total ROM Size (Code + RO Data + RW Data)       5408 (   5.28kB)

==============================================================================

