:020000040800F2
:1000000020040020450100083D02000835020008D8
:10001000390200082F020008190300080000000040
:100020000000000000000000000000004102000885
:1000300033020008000000003F0200085D010008D4
:100040005F0100085F0100085F0100085F01000810
:100050005F0100085F0100085F0100085F01000800
:100060005F0100085F0100085F0100085F010008F0
:100070005F0100085F0100085F0100085F010008E0
:100080005F0100085F0100085F0100085F010008D0
:100090005F0100085F0100085F0100085F010008C0
:1000A0005F0100085F0100085F0100085F010008B0
:1000B0005F0100085F0100085F0100085F010008A0
:1000C0005F0100085F0100085F0100085F01000890
:1000D0005F0100085F0100085F0100085F01000880
:1000E0005F0100085F0100085F0100085F01000870
:1000F0005F0100085F0100085F0100085F01000860
:100100005F0100085F0100085F0100085F0100084F
:100110005F0100085F0100085F0100085F0100083F
:100120005F0100085F0100085F0100085F0100082F
:10013000DFF80CD000F04AF800480047690B0008CF
:10014000200400200648804706480047FEE7FEE7F7
:10015000FEE7FEE7FEE7FEE7FEE7FEE7FEE7FEE777
:1001600045020008310100082DE9F05F0546002036
:1001700092469B4688460646814640241BE0284618
:1001800041464746224600F042F853465A46C01AB6
:10019000914110D311461846224600F029F82D1A35
:1001A00067EB01084F4622460120002100F020F8AD
:1001B00017EB00094E41201EA4F10104DFDC484684
:1001C00031462A464346BDE8F09F0000064C074DE5
:1001D00006E0E06840F0010394E807009847103417
:1001E000AC42F6D3FFF7A8FFB0100008D01000080B
:1001F000202A04DB203A00FA02F1002070479140E7
:10020000C2F1200320FA03F3194390407047202ADB
:1002100004DB203A21FA02F00021704721FA02F3B0
:10022000D040C2F12002914008431946704700BFF8
:10023000FEE7704700BFFEE700BFFEE7704770476C
:100240007047000008B53048006840F001002E49B2
:10025000086000BF2C48006800F002000028F9D0B8
:1002600000BF2948406840F08000274948600020CE
:10027000009002E00098401C009000985028F9D3AC
:100280002148406840F090001F49486000200090DD
:1002900002E00098401C009000985028F9D300BF5D
:1002A0001948406820F00300174948600846006874
:1002B0001649084014490860084640681449084037
:1002C0001149486008460068104908400E49086016
:1002D0000846006820F480200860084640680D4900
:1002E000084009494860084600680849084006492E
:1002F00008604FF41F00886000F0D4FD00214FF02B
:10030000006000F09FFC08BD00100240FFFFF6FEF9
:100310000C00FFE8FFFF00F700BFFEE70FB4054B3E
:1003200010B503A9044A029800F018F810BC5DF853
:1003300014FB0000590900080C00002002E008C866
:10034000121F08C1002AFAD170477047002001E04F
:1003500001C1121F002AFBD1704700002DE9FF4F99
:100360008DB09B460F460446002606E025280BD09C
:100370005A460F999047641C761C20780028F5D1C6
:1003800011B03046BDE8F08F0025A84601229849FB
:1003900000E0054314F8013F203B02FA03F0084255
:1003A000F7D120782E2817D114F8010F45F0040555
:1003B0002A280ED06FF02F022078A0F130010929F1
:1003C0000AD808EB880102EB410100EB0108641C2C
:1003D000F2E757F8048B641C20786C280DD004DCFD
:1003E0004C2812D06A2811D104E074280DD07A2844
:1003F0000CD10AE045F4001507E0617845F480155A
:10040000814202D1641C05F58015641C2278692A9A
:1004100045D008DC002AB3D0582A69D0632A10D00E
:10042000642A08D13BE0702A67D0732A13D0752A5A
:100430005CD0782A5CD010465A460F999047761CBB
:10044000D3E017F8040B8DF8000000208DF80100B0
:10045000E946012003E057F8049B4FF0FF3069079D
:100460004FF0000501D40AE06D1C45450DDA8542C8
:10047000FADB19F805100029F6D106E06D1C85425B
:10048000FCDB19F805100029F8D12E4404E019F816
:10049000010B5A460F9990476D1EF8D2A5E00A202D
:1004A0000021CDE90801C5F3025002280DD001CF8B
:1004B000C117031E71F100030DDA4FF0000CD0EBF1
:1004C0000C006CEB01012D2308E0FF1D27F007074E
:1004D000F7E80201EDE72B0504D52B238DF8283032
:1004E00001233BE0EB0739D02023F7E70A2000E0A7
:1004F00010200021CDE9080107E01020002145F07F
:100500000405CDE908014FF00808C5F302500228A0
:100510000FD001CF00214FF0000A2B071FD5702A02
:100520000DD0DDE908C38CF0100C5CEA030C0CD094
:1005300015E0FF1D27F00707F7E80201EBE740226F
:100540008DF828204FF0010A0BE050EA010306D095
:1005500030238DF828308DF8292002239A46582A16
:1005600004D024A20DF120090B9209E026A2F9E79C
:10057000DDE90823FFF7F8FD0B9B9B5C09F8013DC3
:1005800050EA0102F4D1ADEB090020300890680771
:1005900001D44FF001080899884502DDA8EB01005D
:1005A00000E000208046002506E00AA85A46405D8B
:1005B0000F9990476D1C761C5545F6DB04E0302002
:1005C0005A460F999047761CB8F10001A8F101082E
:1005D000F5DC05E019F8010B5A460F999047761C97
:1005E0000899481E08900029F4DC641CC5E6000048
:1005F00009280100303132333435363738396162F9
:1006000063646566000000003031323334353637BC
:10061000383941424344454600000000816841F0BA
:100620000801816000BF816801F008010029FAD14A
:10063000816841F00401816000BF816801F004011C
:100640000029FAD1704730B5012902D002291AD108
:100650000CE0C36A23F47003C362C36A541E4FF4F0
:10066000700505EA04542343C3620DE0836B23F451
:1006700040138363836B541E4FF4401505EA045402
:100680002343836300E000BF00BF30BD21B1826817
:1006900042F40062826003E0826822F400628260B9
:1006A0007047816801F0010119B9816841F00101C9
:1006B0008160704772B101F001031BB1836843F49C
:1006C0008013836001F0020393B1836843F4004315
:1006D00083600DE001F001031BB1836823F48013F4
:1006E000836001F002031BB1836823F4004383603D
:1006F0007047012902D0022910D107E0836823F452
:100700006023836083681343836008E0836823F475
:10071000E043836083681343836000E000BF00BF51
:10072000704702688A4302607047024600201368DF
:100730000B4003B1012070470549096821F470217D
:10074000034A1160114609680143116070470000B7
:1007500004240140F0B51D4606290CDA436B01EB79
:1007600081071F26BE40B34301EB810602FA06F65D
:100770003343436322E00C290EDA036B8E1F06EB32
:1007800086071F26BE40B3438E1F06EB860602FA7D
:1007900006F63343036311E010290FDAC36AA1F1AF
:1007A0000C0606EB86071F26BE40B343A1F10C06DC
:1007B00006EB860602FA06F63343C3620A2A0CDA0F
:1007C000046902EB42070726BE40B44302EB42062F
:1007D00005FA06F63443046111E0122A0FDAC46800
:1007E000A2F10A0606EB46070726BE40B443A2F173
:1007F0000A0606EB460605FA06F63443C460F0BD69
:100800000146C86C80B2704710B540F2036000F03A
:10081000DBFA40F2096000F0D7FA052000F01EFA7A
:10082000012303220021134800F0E0F800F036F81D
:100830000020FFF781FF00210F48FFF727FF01226B
:1008400011460D48FFF7FFFE4FF4602201210A48D0
:10085000FFF74FFF012211460748FFF72BFF06481D
:10086000FFF71FFF0A2000F023F80348FFF7D6FE2A
:1008700010BD0000000C01400024014001F0010205
:100880001AB1826842F48002826001F002021AB159
:10089000826842F4001282607047000003480068DA
:1008A00040F400000149086070470000082401403E
:1008B00070B504463C20B4FBF0F6B4FBF0F100FB4D
:1008C000114503E03C2000F009F8761E002EF9D116
:1008D00015B1284600F002F870BD00000146002066
:1008E000114A12684A434FF0E0235A6100229A618C
:1008F0001A46126942F001021A6100BF4FF0E0226D
:10090000106900F001021AB100F48032002AF5D01B
:100910004FF0E022126922F001024FF0E0231A6149
:1009200000229A61704700000800002040B10128B1
:100930000DD10849C96B41F08001064AD16306E038
:100940000449C96B21F08001024AD16300BF00BF96
:10095000704700000010024070B504460D46E1B239
:10096000054800F011FB00BF0721034800F015FB0C
:100970000028F9D0204670BD0038014010B505238D
:10098000102200210A48FFF7E5FE01210848FFF781
:1009900075FF00BF02210648FFF7C7FE0028F9D007
:1009A00002210348FFF7BDFE0148FFF729FF10BDF4
:1009B000002401400549096801600449091F0968CC
:1009C000416002490839096881607047F0F7FF1FEC
:1009D000034A12680280024A1268120C0A807047A9
:1009E000E0F7FF1F4161704701617047F0B50446B1
:1009F00016460025002201F00F0501F0100707B18F
:100A0000354300201EE0012787401F40C7B1226800
:100A10004FEA800C0F2707FA0CF7BA43870005FA54
:100A200007F73A43282904D1012787401F4067610F
:100A300005E0482903D1012787401F402761226034
:100A4000471CB8B20828DED3082022E001278740DF
:100A50001F40E7B16268A0F108074FEA870C0F2733
:100A600007FA0CF7BA43A0F10807BF0005FA07F729
:100A70003A43282904D1012787401F40676105E0D8
:100A8000482903D1012787401F4027616260471C26
:100A9000B8B21028DAD3F0BD10B54FF48061094820
:100AA000FFF7A0FF4FF400610648FFF79BFF4FF4EC
:100AB00080510448FFF796FF4FF400510148FFF7BB
:100AC00091FF10BD0018014010B54FF48061094836
:100AD000FFF78AFF4FF400610648FFF785FF4FF4E8
:100AE00080510448FFF780FF4FF400510148FFF7A1
:100AF0007BFF10BD0018014010B540F2066000F009
:100B000063F94FF48063022210211648FFF76EFF4D
:100B10004FF40063022210211248FFF767FF4FF4E1
:100B20008053022210210F48FFF760FF4FF400535B
:100B3000022210210B48FFF759FF4FF4806109484A
:100B4000FFF750FF4FF400610648FFF74BFF4FF4EB
:100B500080510448FFF746FF4FF400510148FFF76A
:100B600041FF10BD001801400120FFF7DFFE782093
:100B700000F0B0F918491948FFF72AFF1848FFF7A5
:100B800019FF4FF4E13000F03BFA13480288134894
:100B9000018814A0FFF7C2FB11488368426801680E
:100BA0001DA0FFF7BBFBFFF7A7FFFFF72DFE12E02D
:100BB000FFF7E4FE044621461DA0FFF7AFFBFFF759
:100BC00083FF4FF40770FFF773FEFFF765FF4FF4E5
:100BD0000770FFF76DFEEBE7000000200200002029
:100BE0001000002043505520666C6173685F736984
:100BF0007A653D2564204B42797465732C7372616C
:100C00006D5F73697A653D2564204B427974657325
:100C10002E2E2E2E2E0D0A00435055205549443DB0
:100C200030782558255825582E2E2E2E2E0D0A00A8
:100C3000414443305F43483820444154413D25649A
:100C40000D0A0000034A0A400243034B1A60BFF337
:100C50004F8F704780FFFF1F08ED00E00F4A51687B
:100C60000F4A1140082814D2DFE800F004050607F7
:100C7000130A130B00BF00BF00BF41EA803109E037
:100C800000BF20F004004FF0805242EA803211434E
:100C900000E000BF00BF014A5160704700100240F1
:100CA000FF3FFFEF2DE9F04F8BB007460020099082
:100CB0003EA090E8004CC068CDE905BECDF810A07C
:100CC00007900FF2EC0ADAE9000ACDE9020A0FF206
:100CD000E00ADAE9000ACDE9000A38484068C0F3C2
:100CE00081000A900A9820B1012804D0022829D155
:100CF00003E0334928E0324926E03048406800F4F8
:100D00008038B8F5803F09D12D4C2C48406800F45C
:100D10000039B9F5003F02D1641000E0294C2748A2
:100D20004068C0F383422548406800F0006008B185
:100D300042F010020F2A01D2921C00E0521C04FB68
:100D400002F101E01E4900BF00BF1C484068C0F32B
:100D5000031504A8465D21FA06F318484068C0F35D
:100D6000022502A8465D23FA06FC14484068C0F339
:100D7000C2251DF8056023FA06F0089037B1012F4F
:100D800006D0022F06D0032F0AD106E0099108E011
:100D9000099306E0CDF824C003E00898099000E02C
:100DA00000BF00BF09980BB0BDE8F08F0000000045
:100DB00000000000010203040607080900100240B9
:100DC00000127A0000093D00064A02EB9011096802
:100DD00000F01F0301229A401143024B03EB9012D3
:100DE0001160704700100240002000212B4A126859
:100DF00042F48032294B1A6000BF401C274A126817
:100E000002F4003119B94FF6FF729042F5D1234A2E
:100E1000126802F400320AB900BFFEE71F4A5268A6
:100E20001E4B5A601A4652685A601A46526842F47B
:100E300080625A601A46526822F440325A601A465A
:100E4000526842F480325A601A465268144B1A4073
:100E5000124B5A601A46526842F450125A601A46AF
:100E6000126842F080721A6000BF0C4A126802F0E9
:100E70000072002AF9D0094A526822F00302074B97
:100E80005A601A46526842F002025A6000BF034A92
:100E9000526802F00C02082AF9D170470010024093
:100EA000FFFFC3F710B5FFF79FFF10BD042808D15F
:100EB0004FF0E021096941F004014FF0E022116197
:100EC00007E04FF0E021096921F004014FF0E02232
:100ED0001161704710B504460420FFF7E7FF04488E
:100EE00004704FF47A7060430249086010BD00003E
:100EF00004000020080000202DE9F04704460D46BC
:100F00000027B846B94600261D49601A8C421CD0FD
:100F100006DC1C48204470B1B0F5806F1FD10FE093
:100F2000B0F5806F16D0B0F56C4F18D10320FFF7E5
:100F3000B9FE074614E00220FFF7B4FE07460FE0B3
:100F40000220FFF7AFFE07460AE00220FFF7AAFEE5
:100F5000074605E00220FFF7A5FE074600E000BFB8
:100F600000BF07EB5500B0FBF5F64FF6F07006EA50
:100F7000000806F00F0948EA0900A060BDE8F08704
:100F8000004C004000BCFFBFC1F308024260704744
:100F9000C16841F40051C160704710B5024602EBD0
:100FA0009110006801F01F040123A340184008B10C
:100FB000012010BD0020FCE7426922F4007242616A
:100FC000426901F400731A4342617047426922F496
:100FD00080724261426901F480731A434261704732
:100FE000C26822F4C062C260C2680A43C26070472D
:100FF0000A460021C16821F004011143C160704715
:1010000010B5044640F20260FFF7DEFE40F20E60CB
:10101000FFF7DAFE4FF40073032218211648FFF79A
:10102000E5FC4FF48063032248211348FFF7DEFC00
:1010300021461248FFF760FF0021104800F030F809
:1010400000210E4800F01CF800210C48FFF7C8FFF3
:1010500000210A48FFF7B0FF00210848FFF7B6FF5C
:101060000821064800F014F804210448FFF7C0FFE7
:101070000248FFF78DFF10BD000801400038014015
:10108000026922F44052026102690A430261704718
:101090000A460021C16821F008011143C160704770
:1010A000C26822F48052C260C2680A43C2607047BC
:1010B000D010000800000020100000003C030008D1
:1010C000E010000810000020100400004C0300088D
:1010D0000000000000000000000000000000000010
:0400000508000131BD
:00000001FF
